:0400000002003B328D
:01000B0032C2
:0100130032BA
:01001B0032B2
:03002300020A14BA
:03002B000208C305
:030033000209635C
:0300AD0002003618
:050036001200DA80FE5B
:0D00B00075BF0175BA1075BF001208B812B7
:0600BD0009F61209E4122D
:0600C30000DF12016712CC
:0E00C90008BC75B81075B90075F80075F9001F
:0300D700D2AF2283
:0300DA001200B061
:0200DD0080FEA3
:0E00DF0075D10075CA7075CC4075D10175D30E
:0E00ED004075D10075CE0075D10475CA00753E
:0E00FB00CB0075CC0075CD0075D10575CD001C
:0E01090075D30075D10075CDB775CF0075D1D7
:0E0117000675CD0175CC0075D10043CA80225B
:09012500AA827B00BA01027B8072
:09012E007401B5080474402BFBB8
:090137007401B5090474202BFBCE
:0C0140007407550A2BFB75D1968BD27505
:03014C00D1D022ED
:0E014F007A007B0075D192E5CA30E404AACB99
:02015D007B0025
:08015F0075D1D08A828B832246
:0901670075D97175DA0075DC012F
:0A017000E5DC30E00553D8FE80F610
:0C017A0075D98075DA0075DB4175D81569
:0E018600E5D820E1FB75D9C075DA0075DB43C2
:0301940075D81506
:0E019700E5D820E1FB75D80475DB0075DC00AF
:0301A50075D835D5
:0E01A800E5D820E1FB75DB0375DC0075D8356A
:0E01B600E5D820E1FB75DB5F75DC1875D835E8
:0B01C400E5D820E1FB75DD6075D84533
:0E01CF00E5D820E1FB75DB0075DC0075DD0076
:0301DD0075D87161
:0E01E000E5D820E1FB75B20243900843910878
:0D01EE0075B20043910875D97175DA009063
:0E01FB000002E4F5F074021202CE75D9077509
:0E020900DA0490000075F0A8740E12028A75D7
:0E021700D80890000075F04074C012028A757D
:0E022500D808900000E4F5F012028A75D8089F
:0D023300900000E4F5F012028A75D80890E2
:0E024000FFFF75F0FF743F12028A75D8089018
:0E024E000000E4F5F012028A75D80890000056
:0E025C00E4F5F012028A75D808900000E4F56F
:0E026A00F0740112028A75D9C075DA0075D8D9
:010278000085
:0B027900E5D820E1FB53DBBE75D81177
:06028400E5D820E1FB2299
:0A028A00AA82AB83ACF0FD8A238B3F
:04029400248C258D04
:05029800268523DB8533
:06029D0024DC8525DD854F
:0502A30026DE75D8F114
:0602A800E5D820E1FB2275
:0302AE0075D80000
:0A02B100E5D820E1FB85DB2785DCA2
:0602BB002885DD2985DE27
:0502C1002A852782855B
:0602C60028838529F0E504
:0202CC002A22E4
:0602CE0012028A75DC013A
:0A02D400E5DC30E00553D8FE80F6AB
:0102DE0022FD
:0202DF00AA82F1
:0E02E100E5D820E1FBC0D9C0DAC0DBC0DCC02C
:0B02EF00DDC0DEEAC40354F8F53285E0
:0C02FA0032D9EA75F008A4FAACF08A05CD
:0B03060074042CFE7D008EDA75D80018
:0A031100E5D820E1FBAD2BAE2CAFC8
:0C031B002D8D828E838FF0E5DE120AAC7F
:0C03270074042532F5D974042A74043CD7
:08033300F9780089DA75D800A1
:0E033B00E5D820E1FB740A2DF8E43EF98F03AB
:0E034900888289838BF0E5DB120AAC740A2DE2
:07035700F52FE43EF5308FA5
:08035E00317401252FFBE43589
:0A03660030F8A9318B82888389F0FA
:0C037000E5DC120AAC7402252FFBE4351A
:0A037C0030F8A9318B82888389F0E4
:0C038600E5DD120AAC7403252FFBE43502
:0A03920030F8A9318B82888389F0CE
:0B039C00E5DE120AAC75D80475D8002D
:0E03A700E5D820E1FB740E2DF8E43EF98F033B
:0E03B500888289838BF0E5DB120AAC740E2D72
:0E03C300FBE43EF88F01C005C006C0077401C0
:0E03D1002BFDE438FE89078D828E838FF0E5C8
:0E03DF00DC120AAC74022BFDE438FE89078D97
:0E03ED00828E838FF0E5DD120AAC74032BFBC9
:0E03FB00E438F88B82888389F0E5DE120AACC4
:0C04090074072532F5D974072A74043CEE
:0E041500FD7B008DDA75D800D007D006D0052B
:0E042300E5D820E1FBE5DC30E328C002C00490
:0E04310074012DFBE43EF88F018B82888389D5
:0E043F00F0121186FA4302088B82888389F03E
:08044D00EA120AACD004D0024F
:0604550075D80875D800FF
:0D045B00E5D820E1FBE5DE20E50302057396
:0E046800C002C00474022DFBE43EF88F018B2D
:0E04760082888389F0E5DB120AAC74022DF552
:060484002FE43EF5308F6D
:08048A00317401252FFAE4355D
:0A04920030FCAB318A828C838BF0C2
:0C049C00E5DC120AAC7402252FFAE435EE
:0A04A80030FBAC318A828B838CF0AC
:0C04B200E5DD120AAC7403252FFAE435D6
:0A04BE0030FBAC31741F55DEF88AE4
:0E04C800828B838CF0120AAC75D80875D808A8
:0A04D60075D80875D800D004D002D4
:0E04E000E5D820E1FBC002C00474062DFBE449
:0D04EE003EF88F018B82888389F0E5DB12D8
:0A04FB000AAC74062DF52FE43EF55F
:06050500308F3174012566
:07050B002FFAE43530FCABD0
:0C051200318A828C838BF0E5DC120AAC8D
:0A051E007402252FFAE43530FBAC1F
:0C052800318A828B838CF0E5DD120AAC76
:0A0534007403252FFAE43530FBAC08
:0C053E0031741F55DE8A828B838CF01212
:0E054A000AAC74012DFAE43EFB8F048A828B0A
:0E055800838CF0121186F84300048A828B8394
:0D0566008CF0E8120AACD004D00202070E9F
:0E057300C002C00474022DFBE43EF88F017438
:0E058100FC55DD0303543F8B82888389F01202
:0A058F000AAC74022DF52FE43EF5CE
:06059900308F31740125D2
:05059F002FF533E435E7
:0405A40030F5348575
:0705A8003135741F55DE859B
:0605AF00338285348385D0
:0805B50035F0120AAC740225B6
:0705BD002FFBE43530FCAA1E
:0C05C400318B828C838AF0E4120AAC7444
:0905D00003252FFAE43530FBACE1
:0C05D900318A828B838CF0E4120AAC851E
:0605E5003382853483859A
:0C05EB0035F01211865403030354C0F5D0
:0505F7002E8533828512
:0605FC0034838535F01286
:0A06020011860303543F85338285FF
:06060C0034838535F01275
:0E0612000AAC74022DFAE43EFB8F048A828B40
:0C062000838CF0121186F8E52E28F88A71
:0E062C00828B838CF0120AAC75D80875D80842
:0A063A0075D80875D800D004D0026E
:0E064400E5D820E1FBC002C00474062DFBE4E3
:0E0652003EF88F0174FC55DD0303543F8B828C
:0C066000888389F0120AAC74062DF53373
:09066C00E43EF5348F35740125DC
:0506750033F52FE43510
:04067A0034F530859E
:07067E003531741F55DE85C4
:060685002F828530838501
:08068B0031F0120AAC740225E3
:0706930033FBE43534FCAA3F
:0C069A00358B828C838AF0E4120AAC7469
:0906A600032533FAE43534FBAC02
:0C06AF00358A828B838CF0E4120AAC8543
:0606BB002F8285308385CB
:0C06C10031F01211865403030354C0F5FD
:0506CD002E852F82853F
:0606D20030838531F012B7
:0A06D80011860303543F852F82852D
:0606E20030838531F012A7
:0E06E8000AAC74062DFAE43EFB8F048A828B66
:0C06F600838CF0121186F8E52E28F88A9B
:0C070200828B838CF0120AACD004D00271
:0C070E0074022532F5D974022A74043CF0
:08071A00FC7A008CDA75D800AE
:0E072200E5D820E1FB74122DFAE43EFB8F04B3
:0E0730008A828B838CF0E5DD120AAC74122DE8
:09073E00FDE43EFE0DBD00010EBC
:0E0747008D828E838FF0E5DE120AACD0DED0FC
:0A075500DDD0DCD0DBD0DAD0D922F1
:02075F00AA826C
:0E076100E5D820E1FBC0D9C0DAC0DBC0DCC0A7
:0E076F00DDC0DEEAC40354F8FB74072BF5D995
:0E077D00EA75F008A42407740435F0FB7A0036
:0E078B008BDA75DB0075DC0075DD2075DE078E
:0307990075D8F11F
:0E079C00E5D820E1FBD0DED0DDD0DCD0DBD014
:0407AA00DAD0D922A6
:0207AE00AA821D
:0E07B000E5D820E1FBC0D9C0DAC0DBC0DCC058
:0E07BE00DDC0DEEAC40354F8FB74072BF5D946
:0E07CC00EA75F008A42407740435F0FB7A00E7
:0E07DA008BDA75DB0075DC0075DD0875DE005E
:0307E80075D8F1D0
:0E07EB00E5D820E1FB75D80875D80875D80848
:0407F9008536398583
:0307FD00373A8503
:03080000383B85FD
:060803003982853A83856D
:080809003BF0121186FDA31261
:0A0811001186FEA3121186FFA31248
:0E081B001186F88D0189DB8E038BDC7A007B61
:0E082900008F0479008CDD7D007E007F00884A
:04083700DE75D8F1A1
:0C083B00E5D820E1FB7404F5D82539F560
:0508470036E4353AF52E
:03084C0037853BB2
:04084F0038AA36ABE2
:0A08530037AC388A828B838CF012D8
:0A085D001186FAA3121186FBA31204
:0E0867001186FCA3121186FD8A068EDB8B071C
:0E0875008FDC7E007F008C00790088DD7A0029
:090883007B007C008DDE75D8F1CC
:0E088C00E5D820E1FB75D80475D80475DB4073
:0C089A0075DC0075DD2075DE0075D8F1FE
:0E08A600E5D820E1FBD0DED0DDD0DCD0DBD009
:0408B400DAD0D9229B
:0408B80075B1FF22F5
:03006C00E478FF36
:03006F00F6D8FDC3
:0C00720075BF0375B3F075BF007800E89F
:07007E00440060077900E473
:04008500F309D8FCA7
:080089007800E84400600C79E6
:050091000090F000E406
:06009600F0A3D8FCD9FA2A
:06009C00E4F50BF50CF584
:0300A2000DF50E4B
:0708BC0043A82043E80122DC
:0C08C300C022C0E0C0F0C082C083C002B0
:0E08CF00C003C004C005C006C007C000C001C1
:0508DD00C0D075D00041
:0E08E200E5D820E1FBC0D9C0DAC0DBC0DCC025
:0B08F000DDC0DE75BF8010C702800F66
:0708FB007508007509007586
:080902000A07758200120125AD
:0E090A00E5B630E02853B6FE75D9C175DA00A7
:0309180075D8008F
:0E091B00E5D820E1FBAADB75D9C175DA0053DF
:09092900023FEAF4F5DB75D81178
:05093200E5D820E1FB07
:0E09370075BFC0D0DED0DDD0DCD0DBD0DAD092
:0E094500D9D0D0D001D000D007D006D005D038
:0E09530004D003D002D083D082D0F0D0E0D008
:02096100223240
:0C096300C022C0E0C0F0C082C083C0020F
:0E096F00C003C004C005C006C007C000C00120
:0D097D00C0D075D00012014FAA828AB012BE
:09098A00014FAA82AB838A0B8B9A
:050993000C750D00755C
:040998000E007536A2
:05099C000B753700752A
:0C09A10038407582001207AE758200120B
:0E09AD00075FD29975BF80E5B530E30353B5FF
:0109BB00F744
:0809BC00E5B530E40353B5EF8B
:0E09C40075BFC0D0D0D001D000D007D006D073
:0E09D20005D004D003D002D083D082D0F0D064
:0409E000E0D022320F
:0E09E40075C4A075C51575C2A075C31575C183
:0409F20014D2C22237
:0700A500750F00E4F510F5F2
:0100AC001142
:0E09F60075B2025390FD43910275B200439119
:0E0A04000275BD0075984075BE9B43BD01D2C2
:020A1200AC2214
:0C0A1400C022C0E0C0F0C082C083C0025D
:0E0A2000C003C004C005C006C007C000C0016E
:0D0A2E00C0D075D00075BF901099028048AF
:080A3B0012014F858210858332
:040A430011C010C00E
:060A47001174DFC0E07431
:0A0A4D0011C0E07480C0E07412C014
:0C0A5700E07400C0E07440C0E0120B5BD3
:0A0A6300E58124F8F581E50F241267
:0A0A6D00F8E6600FAA0F050FEA2457
:090A770012F88682120AA5800320
:030A8000750F00EF
:0E0A8300A29875BFD0D0D0D001D000D007D03F
:0E0A910006D005D004D003D002D083D082D08E
:060A9F00F0D0E0D022328D
:070AA500AA82C2998A99227E
:0511DF0025640D0A006B
:0E11EF0075BF0143B70843B70443B60453B6B7
:0311FD00F7780A76
:04120000D9FED8FC3F
:0312040043B602EC
:0E120700E5B620E1FB30E0F543B70853B7FB36
:0C12150075BB9853B70F43B7A043B70256
:0C122100E5B730E0FB53B7F775BF0022C3
:0E0AAC0020F71030F6118883A88220F507F697
:050ABA00A88375830014
:010ABF002214
:030AC000F280F7CA
:020AC300F0221F
:080048007900E94400601D7A13
:0B0050000043A2019011EF53A2FE90AC
:02005B00F000B3
:0E005D00E443A20193A353A2FEF0A3D9F3DA69
:01006B00F1A3
:080AC500C01F85811FC082E5FE
:0C0ACD001F24FBF886820886830886F050
:0B0AD900121186FEA3121186FFA3126B
:0D0AE4001186FA74012EFBE43FFC8A05E543
:0C0AF1001F24FBF886820886830886F02C
:0C0AFD00EB120AACA3EC120AACA3ED1241
:0C0B09000AAC8E828F838AF0A81F08E6D9
:070B1500120AAC851F81D01C
:020B1C001F2296
:080B1E0085821C85831D85F012
:030B26001E7549F0
:050B29001C754A007577
:040B2E004B4085189B
:030B32004C8519D6
:030B35004D851AD1
:030B38004E851BCC
:050B3B004F900AC512F5
:090B40000C80AA82AB83AC1CAD51
:0A0B49001DAE1E8C828D838EF0E439
:080B5300120AAC8A828B832296
:060B5B00C01F85811FE5AB
:060B61001F24F8F54FE52A
:070B67001F24FBFA8A497507
:060B6E004A00754B40E552
:080B74001F24F8F8864C0886E6
:050B7C004D08864E90BB
:0A0B81000AC5120C80AA82AB83E5BE
:0C0B8B001F24FBF8860408860508860677
:0E0B97008C828D838EF0E4120AAC8A828B83EE
:030BA500D01F223C
:090BA800858248E4B53E0AE4B57B
:080BB1003F06E4B5400280029A
:020BB9008008B2
:080BBB008548821211A280425C
:070BC300853E82853F83851A
:080BCA0040F0121186FEA31297
:0E0BD2001186FFA3121186F874012EF9E43F7C
:0A0BE000FA8803853E82853F838575
:090BEA0040F0E9120AACA3EA1282
:0E0BF3000AACA3EB120AAC8E828F8388F0E569
:040C010048120AACDF
:070C05000546E4B5460205B7
:010C0C0047A0
:010C0D0022C4
:0E0C0E00AA8274302AFA24C6500A74072AFA01
:060C1C003000034302203A
:050C22008A82020BA80C
:0E0C2700E582FAC4540FF582C002120C0ED002
:090C350002740F5AF582020C0E44
:060C3E00858256AB41ACBB
:040C440042AD43AECC
:040C480044AF4575FB
:020C4C0057202F
:0E0C4E00EF2FFFEE235401FA4207EB2BFBECD5
:0C0C5C0033FCED33FDEE33FEC3EF955684
:0A0C68004008EFC39556FF43030157
:060C7200D557D98B418C1F
:040C7800428D438ED8
:040C7C00448F45223A
:070C800085823C85833D8560
:030C8700493E855E
:030C8A004A3F8559
:040C8D004B40E4F5FF
:030C910046F547DE
:050C9400AA4CAB4DACC1
:0C0C99004E8A828B838CF0121186FD7451
:090CA500012AF54CE43BF54D8CED
:080CAE004EEDFA70030211671C
:050CB600BA25028003D5
:030CBB0002115FC4
:050CBE00C201C202C2E8
:040CC30003C204C2A2
:040CC70005C206C29A
:040CCB0007C20875DF
:080CCF0050007551007DFFAEDD
:040CD7004CAF4DAB26
:010CDB004ECA
:0E0CDC008E828F838BF0121186FAA3AE82AF48
:060CEA00838E4C8F4D8B40
:0B0CF0004EBA25078A82120BA88099DB
:050CFB008A04BC30007A
:0D0D0000402A8A04EC24C64023BDFF13E501
:0B0D0D005175F00AA4FCEA24D02CF57C
:070D18005170C1D20280BD41
:0D0D1F00ED75F00AA4FCEA24D02CFD80B094
:0A0D2C00BA2E07BDFFAA7D0080A6C5
:050D36008A04BC61000D
:0D0D3B00400E8A04EC248540075302DFD2ED
:030D480000800226
:020D4B00C200E4
:050D4D00BA20028055F0
:050D5200BA2B02804BEA
:050D5700BA2D028041ED
:050D5C00BA4202804BC9
:050D6100BA43028050BE
:060D6600BA4403020F1164
:060D6C00BA4603020F2746
:060D7200BA4903020F1153
:050D7800BA4C028034BA
:060D7D00BA4F03020F183B
:060D8300BA5003020EA8A5
:050D8900BA5302804C8A
:060D8E00BA5503020F1D1F
:060D9400BA5803020F2211
:030D9A00020F2B1A
:050D9D00D201020CDC94
:050DA200D203020CDC8D
:050DA700D204020CDC87
:050DAC00D206020CDC80
:050DB100D207020CDC7A
:080DB60030060AE54F14F8882D
:050DBE004F8602800FCA
:0A0DC300E54F24FEF8884F86030870
:050DCD008604188B02F2
:080DD2008A82120BA8020F3403
:0A0DDA00E54F24FDF8884F8603085A
:0A0DE400860408860618188B418C5F
:040DEE00428E438569
:060DF20041828542838569
:0C0DF80043F0C00512116EAB82AC83D03A
:060E040005BDFF028B0595
:0A0E0A0020012CC3EB95515026E5A2
:060E140051C39BF551AC37
:010E1A005186
:0C0E1B008C061C8C51EE6014758220C007
:0E0E270003C004C005120BA8D005D004D003F0
:020E350080E457
:020E37008C51DC
:020E39008D0426
:070E3B008541828542838599
:0C0E420043F0121186FDFA602F8C051C95
:0E0E4E00C374808DF063F08095F050208A828E
:0C0E5C00C003C004120BA8D004D003ADEA
:040E680041AE42AFA6
:060E6C00430DBD00010E64
:050E72008D418E428F4E
:030E77004380C1F4
:060E7A00200103020F3409
:090E8000C3EB95514003020F344D
:070E8900E551C39BF551ACDC
:010E90005110
:0B0E91008C051C8C51ED7003020F3229
:0C0E9C00758220C004120BA8D00480E96D
:0A0EA800E54F24FDF8884F86050889
:0A0EB200860608860718188D418E89
:040EBC00428F43AD71
:040EC00043BD8000AE
:060EC40040047A43801493
:030ECA00BD600008
:060ECD0040047A50800B86
:030ED300BD40001F
:060ED60040047A4980028D
:020EDC007A5842
:0E0EDE008A82C002120BA875823A120BA87508
:0E0EEC008230120BA8758278120BA8D002BAC1
:040EFA004902800B1E
:050EFE00BA500280065D
:060F0300854282120C275A
:080F0900854182120C278023B0
:070F1100D20575500A801C97
:050F1800755008801770
:050F1D0075500A80126E
:050F2200755010800D68
:040F2700D208800963
:070F2B008A82120BA880026C
:020F32008C51E0
:090F340030085AE54F24FCF8884E
:0C0F3D004F860408860508860608860713
:080F49001818188C418D428E2E
:040F5100438F447511
:030F550041E475FF
:030F5800421175CE
:020F5B004380D1
:040F5D0085415385F2
:030F610042548572
:050F6400435574012556
:070F690053FFE43554FCAD19
:040F7000558F418CCC
:040F7400428D4385E2
:060F7800538285548385BD
:0A0F7E0055F0121186FCFA70030210
:020F88000C94C7
:070F8A008A82120BA880CC43
:070F9100E5507003020C940F
:040F980075528530D9
:070F9C00062BE54F14F88855
:0A0FA3004FE6FD3395E0FEFFFC8DE4
:040FAD00418E428FA0
:040FB100438C442009
:0A0FB500055EAC417D007E007F0068
:050FBF008C418D428E03
:050FC400438F44804C46
:090FC90030071FE54F24FCF888F5
:0C0FD2004F86040886050886060886077E
:080FDE001818188C418D428E99
:050FE600438F44802A46
:0A0FEB00E54F24FEF8884F86040845
:0C0FF500860518ED3395E0FEFF8C418D61
:04100100428E438F49
:051005004420050CACC5
:08100A0041AD427E007F008E23
:03101200438F44C5
:0A101500300522E54430E71BC3E478
:09101F009541FCE49542FDE495C5
:0710280043FEE49544FF8C38
:04102F00418D428E1F
:05103300438F44800220
:02103800C205EF
:06103A00D209A8527C005F
:0A104000754500855082C004C00011
:0B104A00120C3ED000D00420090DE580
:0A10550045C4FDE6FE4DF618885272
:02105F0080020D
:02106100A645A2
:081063000C8C03B209E54145C4
:04106B004245434572
:08106F004470CE88528C03E5A9
:06107700517003755101E8
:0A107D00200224200121EB04FCAD49
:011087005117
:0E108800C3EC9D5015758220C003C004C00546
:0C109600120BA8D005D004D0031D80E68A
:0210A2008D516E
:0C10A40030050E75822DC003120BA8D081
:0510B00003155180232F
:0C10B500EB602030030E75822BC003128C
:0810C1000BA8D0031551800FAC
:0C10C90030040C758220C003120BA8D06C
:0310D500031551AF
:0510D800200124AC51D1
:0B10DD008C051C8C51C3EB9D502B3088
:0610E80002047D308002CD
:0210EE007D2063
:0E10F0008D82C003C004120BA8D004D0038070
:0110FE00DE13
:0A10FF00C3EB95515008E551C39B67
:04110900F551800715
:05110D00755100800295
:021112008C51FE
:02111400A852DF
:0A1116008B041BEC6026B2092009CF
:0B1120000A08E6C4540FFC8C45800751
:07112B008604740F5CF5451A
:0C113200854582C003C000120C0ED000E6
:04113E00D00380D486
:06114200200103020C94E1
:02114800AB51A9
:09114A008B041BEC7003020C94F1
:0C115300758220C003120BA8D00380EBB3
:08115F008A82120BA8020C9415
:0711670085468285478322C3
:0B11E4003C4E4F20464C4F41543E0053
:04116E00AA82AB8323
:081172001211866003A380F84E
:0C117A00C3E5829AF582E5839BF5832291
:03003B0075818547
:0A003E001211EFE5826003020036A4
:0E11860020F71430F6148883A88220F507E6BF
:06119400A8837583002210
:03119A00E280F7F9
:03119D00E49322B6
:0211A000E0224B
:0D11A200AA82BA0A1C3098117413B5990C7A
:0211AF00C298E4
:0A11B1003098FD7411B599F6C2984C
:0511BB0010990280FB09
:0311C00075990D11
:0811C3003098117413B5990C6A
:0211CB00C298C8
:0A11CD003098FD7411B599F6C29830
:0511D70010990280FBED
:0311DC008A9922CB
:00000001FF
