:040000000200333295
:01000B0032C2
:0100130032BA
:01001B0032B2
:0100230032AA
:03002B000207FFCA
:0300940002002E39
:05002E001200BB80FE82
:0D00970075BF0175BA1075BF001207F11298
:0600A400089F1200C012CB
:0E00AA0007F875B80075B90075F80075F90013
:0300B800D2AF22A2
:0300BB0012009799
:0200BE0080FEC2
:0900C00075D97175DA0075DC01D7
:0A00C900E5DC30E00553D8FE80F6B8
:0C00D30075D98075DA0075DB4175D81511
:0E00DF00E5D820E1FB75D9C075DA0075DB436A
:0300ED0075D815AE
:0E00F000E5D820E1FB75D80475DB0075DC0057
:0300FE0075D8357D
:0E010100E5D820E1FB75DB0375DC0075D83511
:0E010F00E5D820E1FB75DB5F75DC1875D8358F
:0B011D00E5D820E1FB75DD6075D845DA
:0E012800E5D820E1FB75DB0075DC0075DD001D
:0301360075D87108
:0E013900E5D820E1FB75B2024390084391081F
:0D01470075B20043910875D97175DA00900A
:0E0154000002E4F5F0740212020775D9077577
:0E016200DA0490000075F0A8740E1201E37527
:0E017000D80890000075F08C74C41201E3757D
:0E017E00D808900000E4F5F01201E375D808EF
:0D018C009000DEE4F5F01201E375D8089054
:0E019900FFFF75F0FF743F1201E375D8089068
:0E01A7000000E4F5F01201E375D808900000A6
:0E01B500E4F5F01201E375D808900000E4F5BF
:0E01C300F074011201E375D9C075DA0075D829
:0101D100002D
:0B01D200E5D820E1FB53DBBE75D8111F
:0601DD00E5D820E1FB2241
:0A01E300AA82AB83ACF0FD8A088B02
:0401ED00098C0A8DE2
:0501F1000B8508DB8511
:0601F60009DC850ADD852D
:0501FC000BDE75D8F1D7
:06020100E5D820E1FB221C
:060207001201E375DC01A9
:0A020D00E5DC30E00553D8FE80F672
:0102170022C4
:02021800AA82B8
:0E021A00E5D820E1FBC0D9C0DAC0DBC0DCC0F3
:0B022800DDC0DEEAC40354F8F51385C6
:0C02330013D9EA75F008A4FAACF08A05B3
:0B023F0074042CFE7D008EDA75D800E0
:0A024A00E5D820E1FBAD0CAE0DAFCE
:0C0254000E8D828E838FF0E5DE1208B163
:0C02600074042513F5D974042A74043CBE
:08026C00F9780089DA75D80069
:0E027400E5D820E1FB740A2DF8E43EF98F0373
:0E028200888289838BF0E5DB1208B1740A2DA7
:07029000F510E43EF5118FAB
:080297001274012510FBE4358F
:0A029F0011F8A9128B82888389F000
:0C02A900E5DC1208B174022510FBE435FE
:0A02B50011F8A9128B82888389F0EA
:0C02BF00E5DD1208B174032510FBE435E6
:0A02CB0011F8A9128B82888389F0D4
:0B02D500E5DE1208B175D80475D800F2
:0E02E000E5D820E1FB740E2DF8E43EF98F0303
:0E02EE00888289838BF0E5DB1208B1740E2D37
:0E02FC00FBE43EF88F01C005C006C007740188
:0E030A002BFDE438FE89078D828E838FF0E58F
:0E031800DC1208B174022BFDE438FE89078D5B
:0E032600828E838FF0E5DD1208B174032BFB8D
:0E033400E438F88B82888389F0E5DE1208B188
:0C03420074072513F5D974072A74043CD5
:0E034E00FD7B008DDA75D800D007D006D005F3
:0E035C00E5D820E1FBE5DC30E328C002C00458
:0E036A0074012DFBE43EF88F018B828883899D
:0E037800F01208CAFA4302088B82888389F0CB
:08038600EA1208B1D004D00214
:06038E0075D80875D800C7
:0D039400E5D820E1FBE5DE20E5030204AC26
:0E03A100C002C00474022DFBE43EF88F018BF5
:0E03AF0082888389F0E5DB1208B174022DF517
:0603BD0010E43EF5118F73
:0803C3001274012510FAE43563
:0A03CB0011FCAB128A828C838BF0C8
:0C03D500E5DC1208B174022510FAE435D2
:0A03E10011FBAC128A828B838CF0B2
:0C03EB00E5DD1208B174032510FAE435BA
:0A03F70011FBAC12741F55DEF88AEA
:0E040100828B838CF01208B175D80875D8086C
:0A040F0075D80875D800D004D0029B
:0E041900E5D820E1FBC002C00474062DFBE410
:0D0427003EF88F018B82888389F0E5DB129F
:0A04340008B174062DF510E43EF542
:06043E00118F127401256C
:0704440010FAE43511FCABD6
:0C044B00128A828C838BF0E5DC1208B171
:0A04570074022510FAE43511FBAC25
:0C046100128A828B838CF0E5DD1208B15A
:0A046D0074032510FAE43511FBAC0E
:0C04770012741F55DE8A828B838CF012F9
:0E04830008B174012DFAE43EFB8F048A828BCF
:0E049100838CF01208CAF84300048A828B8321
:0D049F008CF0E81208B1D004D0020206472C
:0E04AC00C002C00474022DFBE43EF88F017400
:0E04BA00FC55DD0303543F8B82888389F012CA
:0A04C80008B174022DF510E43EF5B2
:0604D200118F12740125D8
:0504D80010F514E435ED
:0404DD0011F515857B
:0704E1001216741F55DE85A1
:0604E800148285158385D6
:0804EE0016F01208B17402259A
:0704F60010FBE43511FCAA24
:0C04FD00128B828C838AF0E41208B17428
:09050900032510FAE43511FBACE6
:0C051200128A828B838CF0E41208B18501
:06051E001482851583859F
:0C05240016F01208CA5403030354C0F57B
:050530000F8514828517
:0605350015838516F0128B
:0A053B0008CA0303543F85148285AB
:0605450015838516F0127B
:0E054B0008B174022DFAE43EFB8F048A828B05
:0C055900838CF01208CAF8E50F28F88A1D
:0E056500828B838CF01208B175D80875D80807
:0A05730075D80875D800D004D00236
:0E057D00E5D820E1FBC002C00474062DFBE4AB
:0E058B003EF88F0174FC55DD0303543F8B8254
:0C059900888389F01208B174062DF51457
:0905A500E43EF5158F16740125E2
:0505AE0014F510E43516
:0405B30015F51185A4
:0705B7001612741F55DE85CA
:0605BE0010828511838507
:0805C40012F01208B1740225C7
:0705CC0014FBE43515FCAA45
:0C05D300168B828C838AF0E41208B1744D
:0905DF00032514FAE43515FBAC08
:0C05E800168A828B838CF0E41208B18527
:0605F400108285118385D1
:0C05FA0012F01208CA5403030354C0F5A9
:050606000F8510828544
:06060B0011838512F012BC
:0A06110008CA0303543F85108285D8
:06061B0011838512F012AC
:0E06210008B174062DFAE43EFB8F048A828B2A
:0C062F00838CF01208CAF8E50F28F88A46
:0C063B00828B838CF01208B1D004D00236
:0C06470074022513F5D974022A74043CD7
:08065300FC7A008CDA75D80076
:0E065B00E5D820E1FB74122DFAE43EFB8F047B
:0E0669008A828B838CF0E5DD1208B174122DAD
:09067700FDE43EFE0DBD00010E84
:0E0680008D828E838FF0E5DE1208B1D0DED0C1
:0A068E00DDD0DCD0DBD0DAD0D922B9
:02069800AA8234
:0E069A00E5D820E1FBC0D9C0DAC0DBC0DCC06F
:0E06A800DDC0DEEAC40354F8FB74072BF5D95D
:0E06B600EA75F008A42407740435F0FB7A00FE
:0E06C4008BDA75DB0075DC0075DD2075DE0756
:0306D20075D8F1E7
:0E06D500E5D820E1FBD0DED0DDD0DCD0DBD0DC
:0406E300DAD0D9226E
:0206E700AA82E5
:0E06E900E5D820E1FBC0D9C0DAC0DBC0DCC020
:0E06F700DDC0DEEAC40354F8FB74072BF5D90E
:0E070500EA75F008A42407740435F0FB7A00AE
:0E0713008BDA75DB0075DC0075DD0875DE0025
:0307210075D8F197
:0E072400E5D820E1FB75D80875D80875D8080F
:0407320085171A8588
:03073600181B8508
:03073900191C8503
:06073C001A82851B838573
:080742001CF01208CAFDA3120D
:0A074A0008CAFEA31208CAFFA3129A
:0E07540008CAF88D0189DB8E038BDC7A007BEE
:0E076200008F0479008CDD7D007E007F008812
:04077000DE75D8F169
:0C077400E5D820E1FB7404F5D8251AF547
:0507800017E4351BF534
:0307850018851CB8
:0407880019AA17ABE8
:0A078C0018AC198A828B838CF012DE
:0A07960008CAFAA31208CAFBA31256
:0E07A00008CAFCA31208CAFD8A068EDB8B076E
:0E07AE008FDC7E007F008C00790088DD7A00F1
:0907BC007B007C008DDE75D8F194
:0E07C500E5D820E1FB75D80475D80475DB403B
:0C07D30075DC0075DD2075DE0075D8F1C6
:0E07DF00E5D820E1FBD0DED0DDD0DCD0DBD0D1
:0407ED00DAD0D92263
:0707F10075B1FF75B0532242
:03006400E478FF3E
:03006700F6D8FDCB
:0C006A0075BF0375B3F075BF007800E8A7
:07007600440060077900E47B
:04007D00F309D8FCAF
:080081007800E84400600C79EE
:050089000090F000E40E
:06008E00F0A3D8FCD9FA32
:0707F80043A82085E8E82278
:0C07FF00C020C0E0C0F0C082C083C00277
:0E080B00C003C004C005C006C007C000C00185
:05081900C0D075D00005
:0E081E00E5D820E1FBC0D9C0DAC0DBC0DCC0E9
:0B082C00DDC0DE75BF8010C702800831
:08083700B2B7758200120698A9
:0E083F00E5B630E02F53B6FE75D9C175DA006C
:03084D0075D8005B
:0E085000E5D820E1FBE5DBFA54186002B2B6F1
:0E085E0075D9C175DA0053023FEAF4F5DB7577
:02086C00D811A1
:05086E00E5D820E1FBCC
:0E08730075BFC0D0DED0DDD0DCD0DBD0DAD057
:0E088100D9D0D0D001D000D007D006D005D0FD
:0E088F0004D003D002D083D082D0F0D0E0D0CD
:02089D00203207
:0E089F0075C4AC75C54875C2AC75C34875C14B
:0408AD001ED2C22273
:0E08E60075BF0143B70843B70443B60453B6C9
:0308F400F7780A88
:0408F700D9FED8FC52
:0308FB0043B602FF
:0E08FE00E5B620E1FB30E0F543B70853B7FB49
:0C090C0075BB9853B70F43B7A043B70268
:0C091800E5B730E0FB53B7F775BF0022D5
:0E08B10020F71030F6118883A88220F507F694
:0508BF00A88375830011
:0108C4002211
:0308C500F280F7C7
:0208C800F0221C
:080040007900E94400601D7A1B
:0B0048000043A2019008E653A2FE90C6
:02005300F000BB
:0E005500E443A20193A353A2FEF0A3D9F3DA71
:01006300F1AB
:0300330075817F55
:0A0036001208E6E582600302002EC6
:0E08CA0020F71430F6148883A88220F507E684
:0608D800A88375830022D5
:0308DE00E280F7BE
:0308E100E493227B
:0208E400E02210
:00000001FF
